:100000000C9434000C945A000C945A000C946A021C
:100010000C945A000C945A000C945A000C946004EE
:100020000C945A000C945A000C945A000C945A00E8
:100030000C945A000C945A000C9401040C945A002D
:100040000C945A000C945A000C945A000C945A00C8
:100050000C945A000C945A000C945A000C945A00B8
:100060000C945A000C945A0011241FBECFEFD4E018
:10007000DEBFCDBF14BE88E10FB6F8948093600058
:10008000109260000FBE11E0A0E0B1E0ECE5F9E0F5
:1000900002C005900D92AC30B107D9F721E0ACE079
:1000A000B1E001C01D92A332B207E1F70E94C30183
:1000B0000C94AC040C940000BC0180E49FE10E940D
:1000C0008404862F603138F07727CB01409797FD65
:1000D0000196959587958093B800089584EA80935A
:1000E000BC008091BC0087FFFCCF089584E9809319
:1000F000BC008091BC0084FFFCCF08958093BB00BE
:1001000084E88093BC008091BC0087FFFCCF0895F9
:1001100020E4829FC001112484688093BC008091F8
:10012000BC0087FFFCCF8091BB000895EF92FF9247
:100130001F93CF93DF9300D000D0CDB7DEB7142F3D
:100140002B833C836A8389830E946E0089810E948D
:100150007E006A81862F0E947E002B81E22E3C81E8
:10016000F32E120F1E1531F0F70181917F010E94CD
:100170007E00F8CF0F900F900F900F90DF91CF91EE
:100180001F91FF90EF900C947600EF92FF921F93D7
:10019000CF93DF9300D01F92CDB7DEB7F82E142F88
:1001A0002A833B8369830E946E008F2D0E947E000C
:1001B0006981862F0E947E000E946E0081E08F0D73
:1001C0000E947E0011502A81E22E3B81F32E1F3FB8
:1001D00059F081E0111101C080E00E948800F70110
:1001E00081937F011150F3CF0F900F900F90DF910B
:1001F000CF911F91FF90EF900C9476000F931F9377
:10020000CF93DF9300D01F92CDB7DEB78C019E0154
:100210002F5F3F4F42E061E180ED0E94C500898180
:1002200090E0F801918380838A81829586958695F6
:10023000837082839E012F5F3F4F41E06EE080ED2F
:100240000E94C5008981806289839E012D5F3F4F96
:1002500041E06FE080ED0E94C5008B8183FD08C006
:100260009E012F5F3F4F41E06EE080ED0E949600BF
:100270000F900F900F90DF91CF911F910F910895E4
:10028000CF93DF931F92CDB7DEB719829E012F5F08
:100290003F4F41E06EE080ED0E9496000F90DF91AD
:1002A000CF9108956AE00E947804292F30E1839F5E
:1002B000C0011124822B0895CF93DF9300D000D08A
:1002C000CDB7DEB719826C830E9452018A836C819C
:1002D000862F0E9452018B839E012F5F3F4F43E088
:1002E00060E080ED0E9496000F900F900F900F90AD
:1002F000DF91CF910895982F92959F708F702AE08B
:10030000929F800D11240895CF92DF92EF92FF9279
:100310000F931F93CF93DF93CDB7DEB728970FB618
:10032000F894DEBF0FBECDBFD82E9E012F5F3F4F8A
:1003300047E060E080ED98870E94C5009E012F5F36
:100340003F4F79010D2D9885192F6E0138E0C30EAE
:10035000D11CF70181917F010E947B01F8018193FB
:100360008F01EC14FD04A9F728960FB6F894DEBFB0
:100370000FBECDBFDF91CF911F910F91FF90EF90F6
:10038000DF90CF90089584E690E00E945C000E9488
:10039000400184B5826084BD85B5856085BD8EE1F0
:1003A00087BD80916E00826080936E008091B00066
:1003B00082608093B0008091B10087608093B1002B
:1003C0008AE08093B3008091700082608093700017
:1003D00026982E9A809168008160809368008091B1
:1003E0006B00806480936B00789455985D9A569862
:1003F0005E9A27982F9A87B18F6087B98AB18E61EC
:100400008AB9509A229A209A58981AE0CAE0D0E005
:1004100085E191E00E94840181E191E00E94FE006B
:100420008091150180931001809116018093220123
:100430008091170180930F0180912201612F0E940A
:10044000780490931E01809122010E9478040E94FA
:10045000780490931D0180910F010E94780490937D
:10046000200180910F010E9478040E9478049093EB
:1004700014018091110190911201BE010E94980413
:10048000482FCB01BE010E949804282F80911301B0
:1004900039E1839FC0011124BE010E9498041F9975
:1004A000B7CF40930C0120931F0110920E0160936F
:1004B0000D0180910C018093200180911F01809398
:1004C000140180910E0180931E0180910D01809393
:1004D0001D01E5CF1F920F920FB60F9211242F939B
:1004E0003F934F935F936F937F938F939F93AF93BC
:1004F000BF93EF93FF931E9973C12FEF34E34CE04A
:10050000215030404040E1F700C000005F9A589809
:10051000599A5A9A5B9A5C9A21E053E04AE0A6E025
:10052000A895223009F450C060F4213009F01BC1B5
:1005300088B1807F88B98BB1837E8BB9599A30E0BE
:1005400027C0233009F482C0243009F00CC130E008
:10055000C0C04D9920C04D9BFECF81E0830F642F1A
:100560000E947804392F88B1807F88B988B1E32F41
:10057000F0E0EF5FFE4F9081892B88B99FEFE0E7B5
:10058000F2E09150E040F040E1F700C000002F5F42
:100590001F99DFCF10C04E99E6CF4E9BFECF8FE361
:1005A0009CE90197F1F700C00000332311F03150AE
:1005B000DACF39E0D8CF1F9908C08FE39CE90197C3
:1005C000F1F700C00000F7CF30E088B1807F88B934
:1005D0008BB1857E8BB95A9A90E01F9B28C04D99AC
:1005E00008C04D9BFECF81E0890F6A2F0E947804DE
:1005F00009C04E9907C04E9BFECF992311F0915030
:1006000001C095E088B1807F88B988B1E92FF0E01A
:10061000EF5FFE4F6081862B88B9EFEFF0E762E075
:10062000E150F0406040E1F700C00000D6CF1F99D4
:1006300007C0EFE3FCE93197F1F700C00000F7CF06
:10064000FAE09F9F300D11243093210188B1807F03
:1006500088B98BB1897E8BB95B9A30E01F9B30C023
:100660004D9909C04D9BFECF81E0830F642F0E94FE
:100670007804392F0FC04E990DC04E9BFECF8FE3EB
:100680009CE90197F1F700C00000332311F03150CD
:1006900001C039E088B1807F88B988B1E32FF0E0EC
:1006A000EF5FFE4F9081892B88B99FEFE0E7F2E082
:1006B0009150E040F040E1F700C000002F5FCECF46
:1006C0001F9907C08FE39CE90197F1F700C0000074
:1006D000F7CF88B1807F88B98BB1817F8BB95C9A65
:1006E00090E01F9B29C04D9908C04D9BFECF81E033
:1006F000890F652F0E94780409C04E9907C04E9B50
:10070000FECF992311F0915001C092E088B1807F13
:1007100088B988B1E92FF0E0EF5FFE4F6081862B4A
:1007200088B9EFEFF0E762E0E150F0406040E1F7B8
:1007300000C000002F5FD5CF1F9907C0EFE3FCE991
:100740003197F1F700C00000F7CFFAE09F9F300D1E
:100750001124383118F430931C0102C010921C018E
:100760008BB18E618BB91E99DBCE5F9885E090E0EE
:100770002FEF30E742E0215030404040E1F700C029
:10078000000059985A985B985C986FEF70E7E2E028
:1007900061507040E040E1F700C00000599A5A9A59
:1007A0005B9A5C9A0197009719F760911C01809100
:1007B00021010E945C01FFEF20E732E0F150204070
:1007C0003040E1F700C0000028E088E190E00FB67B
:1007D000F894A895809360000FBE20936000FFCF2F
:1007E000FF91EF91BF91AF919F918F917F916F9109
:1007F0005F914F913F912F910F900FBE0F901F90DF
:1008000018951F920F920FB60F9211248F939F93FA
:10081000EF93FF9380910001813079F45C9888B167
:10082000807F88B988B1E0911E01F0E0EF5FFE4F54
:100830009081892B88B9599A32C0823079F45998BD
:1008400088B1807F88B988B1E0911D01F0E0EF5F49
:10085000FE4F9081892B88B95A9A21C0833079F450
:100860005A9888B1807F88B988B1E0912001F0E082
:10087000EF5FFE4F9081892B88B95B9A10C084305E
:1008800071F45B9888B1807F88B988B1E0911401D8
:10089000F0E0EF5FFE4F9081892B88B95C9A8091E0
:1008A00000018F5F853009F481E080930001FF91A2
:1008B000EF919F918F910F900FBE0F901F90189501
:1008C0001F920F920FB60F9211248F939F938091D6
:1008D000100180FD05C08BB191E089278BB901C063
:1008E00058989F918F910F900FBE0F901F90189561
:1008F000991B79E004C0991F961708F0961B881F72
:100900007A95C9F780950895AA1BBB1B51E107C0D2
:10091000AA1FBB1FA617B70710F0A61BB70B881F8F
:10092000991F5A95A9F780959095BC01CD0108951E
:1009300097FB072E16F4009407D077FD09D00E948C
:10094000840407FC05D03EF4909581959F4F08954F
:0C095000709561957F4F0895F894FFCFDB
:0C095C0001000C04080109020A030B0052
:00000001FF
