
00_TEST.elf:     file format elf32-avr

Sections:
Idx Name          Size      VMA       LMA       File off  Algn
  0 .data         0000000c  00800100  0000095c  000009f0  2**0
                  CONTENTS, ALLOC, LOAD, DATA
  1 .text         0000095c  00000000  00000000  00000094  2**1
                  CONTENTS, ALLOC, LOAD, READONLY, CODE
  2 .bss          00000017  0080010c  0080010c  000009fc  2**0
                  ALLOC
  3 .comment      00000030  00000000  00000000  000009fc  2**0
                  CONTENTS, READONLY

Disassembly of section .text:

00000000 <__vectors>:
   0:	0c 94 34 00 	jmp	0x68	; 0x68 <__ctors_end>
   4:	0c 94 5a 00 	jmp	0xb4	; 0xb4 <__bad_interrupt>
   8:	0c 94 5a 00 	jmp	0xb4	; 0xb4 <__bad_interrupt>
   c:	0c 94 6a 02 	jmp	0x4d4	; 0x4d4 <__vector_3>
  10:	0c 94 5a 00 	jmp	0xb4	; 0xb4 <__bad_interrupt>
  14:	0c 94 5a 00 	jmp	0xb4	; 0xb4 <__bad_interrupt>
  18:	0c 94 5a 00 	jmp	0xb4	; 0xb4 <__bad_interrupt>
  1c:	0c 94 60 04 	jmp	0x8c0	; 0x8c0 <__vector_7>
  20:	0c 94 5a 00 	jmp	0xb4	; 0xb4 <__bad_interrupt>
  24:	0c 94 5a 00 	jmp	0xb4	; 0xb4 <__bad_interrupt>
  28:	0c 94 5a 00 	jmp	0xb4	; 0xb4 <__bad_interrupt>
  2c:	0c 94 5a 00 	jmp	0xb4	; 0xb4 <__bad_interrupt>
  30:	0c 94 5a 00 	jmp	0xb4	; 0xb4 <__bad_interrupt>
  34:	0c 94 5a 00 	jmp	0xb4	; 0xb4 <__bad_interrupt>
  38:	0c 94 01 04 	jmp	0x802	; 0x802 <__vector_14>
  3c:	0c 94 5a 00 	jmp	0xb4	; 0xb4 <__bad_interrupt>
  40:	0c 94 5a 00 	jmp	0xb4	; 0xb4 <__bad_interrupt>
  44:	0c 94 5a 00 	jmp	0xb4	; 0xb4 <__bad_interrupt>
  48:	0c 94 5a 00 	jmp	0xb4	; 0xb4 <__bad_interrupt>
  4c:	0c 94 5a 00 	jmp	0xb4	; 0xb4 <__bad_interrupt>
  50:	0c 94 5a 00 	jmp	0xb4	; 0xb4 <__bad_interrupt>
  54:	0c 94 5a 00 	jmp	0xb4	; 0xb4 <__bad_interrupt>
  58:	0c 94 5a 00 	jmp	0xb4	; 0xb4 <__bad_interrupt>
  5c:	0c 94 5a 00 	jmp	0xb4	; 0xb4 <__bad_interrupt>
  60:	0c 94 5a 00 	jmp	0xb4	; 0xb4 <__bad_interrupt>
  64:	0c 94 5a 00 	jmp	0xb4	; 0xb4 <__bad_interrupt>

00000068 <__ctors_end>:
  68:	11 24       	eor	r1, r1
  6a:	1f be       	out	0x3f, r1	; 63
  6c:	cf ef       	ldi	r28, 0xFF	; 255
  6e:	d4 e0       	ldi	r29, 0x04	; 4
  70:	de bf       	out	0x3e, r29	; 62
  72:	cd bf       	out	0x3d, r28	; 61

00000074 <wdt_init>:
  74:	14 be       	out	0x34, r1	; 52
  76:	88 e1       	ldi	r24, 0x18	; 24
  78:	0f b6       	in	r0, 0x3f	; 63
  7a:	f8 94       	cli
  7c:	80 93 60 00 	sts	0x0060, r24
  80:	10 92 60 00 	sts	0x0060, r1
  84:	0f be       	out	0x3f, r0	; 63

00000086 <__do_copy_data>:
  86:	11 e0       	ldi	r17, 0x01	; 1
  88:	a0 e0       	ldi	r26, 0x00	; 0
  8a:	b1 e0       	ldi	r27, 0x01	; 1
  8c:	ec e5       	ldi	r30, 0x5C	; 92
  8e:	f9 e0       	ldi	r31, 0x09	; 9
  90:	02 c0       	rjmp	.+4      	; 0x96 <__do_copy_data+0x10>
  92:	05 90       	lpm	r0, Z+
  94:	0d 92       	st	X+, r0
  96:	ac 30       	cpi	r26, 0x0C	; 12
  98:	b1 07       	cpc	r27, r17
  9a:	d9 f7       	brne	.-10     	; 0x92 <__do_copy_data+0xc>

0000009c <__do_clear_bss>:
  9c:	21 e0       	ldi	r18, 0x01	; 1
  9e:	ac e0       	ldi	r26, 0x0C	; 12
  a0:	b1 e0       	ldi	r27, 0x01	; 1
  a2:	01 c0       	rjmp	.+2      	; 0xa6 <.do_clear_bss_start>

000000a4 <.do_clear_bss_loop>:
  a4:	1d 92       	st	X+, r1

000000a6 <.do_clear_bss_start>:
  a6:	a3 32       	cpi	r26, 0x23	; 35
  a8:	b2 07       	cpc	r27, r18
  aa:	e1 f7       	brne	.-8      	; 0xa4 <.do_clear_bss_loop>
  ac:	0e 94 c3 01 	call	0x386	; 0x386 <main>
  b0:	0c 94 ac 04 	jmp	0x958	; 0x958 <_exit>

000000b4 <__bad_interrupt>:
  b4:	0c 94 00 00 	jmp	0	; 0x0 <__vectors>

000000b8 <i2cSetBitrate>:
  b8:	bc 01       	movw	r22, r24
  ba:	80 e4       	ldi	r24, 0x40	; 64
  bc:	9f e1       	ldi	r25, 0x1F	; 31
  be:	0e 94 84 04 	call	0x908	; 0x908 <__udivmodhi4>
  c2:	86 2f       	mov	r24, r22
  c4:	60 31       	cpi	r22, 0x10	; 16
  c6:	38 f0       	brcs	.+14     	; 0xd6 <i2cSetBitrate+0x1e>
  c8:	77 27       	eor	r23, r23
  ca:	cb 01       	movw	r24, r22
  cc:	40 97       	sbiw	r24, 0x10	; 16
  ce:	97 fd       	sbrc	r25, 7
  d0:	01 96       	adiw	r24, 0x01	; 1
  d2:	95 95       	asr	r25
  d4:	87 95       	ror	r24
  d6:	80 93 b8 00 	sts	0x00B8, r24
  da:	08 95       	ret

000000dc <TWI_start>:
  dc:	84 ea       	ldi	r24, 0xA4	; 164
  de:	80 93 bc 00 	sts	0x00BC, r24
  e2:	80 91 bc 00 	lds	r24, 0x00BC
  e6:	87 ff       	sbrs	r24, 7
  e8:	fc cf       	rjmp	.-8      	; 0xe2 <TWI_start+0x6>
  ea:	08 95       	ret

000000ec <TWI_stop>:
  ec:	84 e9       	ldi	r24, 0x94	; 148
  ee:	80 93 bc 00 	sts	0x00BC, r24
  f2:	80 91 bc 00 	lds	r24, 0x00BC
  f6:	84 ff       	sbrs	r24, 4
  f8:	fc cf       	rjmp	.-8      	; 0xf2 <TWI_stop+0x6>
  fa:	08 95       	ret

000000fc <TWI_write>:
  fc:	80 93 bb 00 	sts	0x00BB, r24
 100:	84 e8       	ldi	r24, 0x84	; 132
 102:	80 93 bc 00 	sts	0x00BC, r24
 106:	80 91 bc 00 	lds	r24, 0x00BC
 10a:	87 ff       	sbrs	r24, 7
 10c:	fc cf       	rjmp	.-8      	; 0x106 <TWI_write+0xa>
 10e:	08 95       	ret

00000110 <TWI_read>:
 110:	20 e4       	ldi	r18, 0x40	; 64
 112:	82 9f       	mul	r24, r18
 114:	c0 01       	movw	r24, r0
 116:	11 24       	eor	r1, r1
 118:	84 68       	ori	r24, 0x84	; 132
 11a:	80 93 bc 00 	sts	0x00BC, r24
 11e:	80 91 bc 00 	lds	r24, 0x00BC
 122:	87 ff       	sbrs	r24, 7
 124:	fc cf       	rjmp	.-8      	; 0x11e <TWI_read+0xe>
 126:	80 91 bb 00 	lds	r24, 0x00BB
 12a:	08 95       	ret

0000012c <TWI_write_buf>:
 12c:	ef 92       	push	r14
 12e:	ff 92       	push	r15
 130:	1f 93       	push	r17
 132:	cf 93       	push	r28
 134:	df 93       	push	r29
 136:	00 d0       	rcall	.+0      	; 0x138 <TWI_write_buf+0xc>
 138:	00 d0       	rcall	.+0      	; 0x13a <TWI_write_buf+0xe>
 13a:	cd b7       	in	r28, 0x3d	; 61
 13c:	de b7       	in	r29, 0x3e	; 62
 13e:	14 2f       	mov	r17, r20
 140:	2b 83       	std	Y+3, r18	; 0x03
 142:	3c 83       	std	Y+4, r19	; 0x04
 144:	6a 83       	std	Y+2, r22	; 0x02
 146:	89 83       	std	Y+1, r24	; 0x01
 148:	0e 94 6e 00 	call	0xdc	; 0xdc <TWI_start>
 14c:	89 81       	ldd	r24, Y+1	; 0x01
 14e:	0e 94 7e 00 	call	0xfc	; 0xfc <TWI_write>
 152:	6a 81       	ldd	r22, Y+2	; 0x02
 154:	86 2f       	mov	r24, r22
 156:	0e 94 7e 00 	call	0xfc	; 0xfc <TWI_write>
 15a:	2b 81       	ldd	r18, Y+3	; 0x03
 15c:	e2 2e       	mov	r14, r18
 15e:	3c 81       	ldd	r19, Y+4	; 0x04
 160:	f3 2e       	mov	r15, r19
 162:	12 0f       	add	r17, r18
 164:	1e 15       	cp	r17, r14
 166:	31 f0       	breq	.+12     	; 0x174 <TWI_write_buf+0x48>
 168:	f7 01       	movw	r30, r14
 16a:	81 91       	ld	r24, Z+
 16c:	7f 01       	movw	r14, r30
 16e:	0e 94 7e 00 	call	0xfc	; 0xfc <TWI_write>
 172:	f8 cf       	rjmp	.-16     	; 0x164 <TWI_write_buf+0x38>
 174:	0f 90       	pop	r0
 176:	0f 90       	pop	r0
 178:	0f 90       	pop	r0
 17a:	0f 90       	pop	r0
 17c:	df 91       	pop	r29
 17e:	cf 91       	pop	r28
 180:	1f 91       	pop	r17
 182:	ff 90       	pop	r15
 184:	ef 90       	pop	r14
 186:	0c 94 76 00 	jmp	0xec	; 0xec <TWI_stop>

0000018a <TWI_read_buf>:
 18a:	ef 92       	push	r14
 18c:	ff 92       	push	r15
 18e:	1f 93       	push	r17
 190:	cf 93       	push	r28
 192:	df 93       	push	r29
 194:	00 d0       	rcall	.+0      	; 0x196 <TWI_read_buf+0xc>
 196:	1f 92       	push	r1
 198:	cd b7       	in	r28, 0x3d	; 61
 19a:	de b7       	in	r29, 0x3e	; 62
 19c:	f8 2e       	mov	r15, r24
 19e:	14 2f       	mov	r17, r20
 1a0:	2a 83       	std	Y+2, r18	; 0x02
 1a2:	3b 83       	std	Y+3, r19	; 0x03
 1a4:	69 83       	std	Y+1, r22	; 0x01
 1a6:	0e 94 6e 00 	call	0xdc	; 0xdc <TWI_start>
 1aa:	8f 2d       	mov	r24, r15
 1ac:	0e 94 7e 00 	call	0xfc	; 0xfc <TWI_write>
 1b0:	69 81       	ldd	r22, Y+1	; 0x01
 1b2:	86 2f       	mov	r24, r22
 1b4:	0e 94 7e 00 	call	0xfc	; 0xfc <TWI_write>
 1b8:	0e 94 6e 00 	call	0xdc	; 0xdc <TWI_start>
 1bc:	81 e0       	ldi	r24, 0x01	; 1
 1be:	8f 0d       	add	r24, r15
 1c0:	0e 94 7e 00 	call	0xfc	; 0xfc <TWI_write>
 1c4:	11 50       	subi	r17, 0x01	; 1
 1c6:	2a 81       	ldd	r18, Y+2	; 0x02
 1c8:	e2 2e       	mov	r14, r18
 1ca:	3b 81       	ldd	r19, Y+3	; 0x03
 1cc:	f3 2e       	mov	r15, r19
 1ce:	1f 3f       	cpi	r17, 0xFF	; 255
 1d0:	59 f0       	breq	.+22     	; 0x1e8 <TWI_read_buf+0x5e>
 1d2:	81 e0       	ldi	r24, 0x01	; 1
 1d4:	11 11       	cpse	r17, r1
 1d6:	01 c0       	rjmp	.+2      	; 0x1da <TWI_read_buf+0x50>
 1d8:	80 e0       	ldi	r24, 0x00	; 0
 1da:	0e 94 88 00 	call	0x110	; 0x110 <TWI_read>
 1de:	f7 01       	movw	r30, r14
 1e0:	81 93       	st	Z+, r24
 1e2:	7f 01       	movw	r14, r30
 1e4:	11 50       	subi	r17, 0x01	; 1
 1e6:	f3 cf       	rjmp	.-26     	; 0x1ce <TWI_read_buf+0x44>
 1e8:	0f 90       	pop	r0
 1ea:	0f 90       	pop	r0
 1ec:	0f 90       	pop	r0
 1ee:	df 91       	pop	r29
 1f0:	cf 91       	pop	r28
 1f2:	1f 91       	pop	r17
 1f4:	ff 90       	pop	r15
 1f6:	ef 90       	pop	r14
 1f8:	0c 94 76 00 	jmp	0xec	; 0xec <TWI_stop>

000001fc <DS3231_get_temperature>:
 1fc:	0f 93       	push	r16
 1fe:	1f 93       	push	r17
 200:	cf 93       	push	r28
 202:	df 93       	push	r29
 204:	00 d0       	rcall	.+0      	; 0x206 <DS3231_get_temperature+0xa>
 206:	1f 92       	push	r1
 208:	cd b7       	in	r28, 0x3d	; 61
 20a:	de b7       	in	r29, 0x3e	; 62
 20c:	8c 01       	movw	r16, r24
 20e:	9e 01       	movw	r18, r28
 210:	2f 5f       	subi	r18, 0xFF	; 255
 212:	3f 4f       	sbci	r19, 0xFF	; 255
 214:	42 e0       	ldi	r20, 0x02	; 2
 216:	61 e1       	ldi	r22, 0x11	; 17
 218:	80 ed       	ldi	r24, 0xD0	; 208
 21a:	0e 94 c5 00 	call	0x18a	; 0x18a <TWI_read_buf>
 21e:	89 81       	ldd	r24, Y+1	; 0x01
 220:	90 e0       	ldi	r25, 0x00	; 0
 222:	f8 01       	movw	r30, r16
 224:	91 83       	std	Z+1, r25	; 0x01
 226:	80 83       	st	Z, r24
 228:	8a 81       	ldd	r24, Y+2	; 0x02
 22a:	82 95       	swap	r24
 22c:	86 95       	lsr	r24
 22e:	86 95       	lsr	r24
 230:	83 70       	andi	r24, 0x03	; 3
 232:	82 83       	std	Z+2, r24	; 0x02
 234:	9e 01       	movw	r18, r28
 236:	2f 5f       	subi	r18, 0xFF	; 255
 238:	3f 4f       	sbci	r19, 0xFF	; 255
 23a:	41 e0       	ldi	r20, 0x01	; 1
 23c:	6e e0       	ldi	r22, 0x0E	; 14
 23e:	80 ed       	ldi	r24, 0xD0	; 208
 240:	0e 94 c5 00 	call	0x18a	; 0x18a <TWI_read_buf>
 244:	89 81       	ldd	r24, Y+1	; 0x01
 246:	80 62       	ori	r24, 0x20	; 32
 248:	89 83       	std	Y+1, r24	; 0x01
 24a:	9e 01       	movw	r18, r28
 24c:	2d 5f       	subi	r18, 0xFD	; 253
 24e:	3f 4f       	sbci	r19, 0xFF	; 255
 250:	41 e0       	ldi	r20, 0x01	; 1
 252:	6f e0       	ldi	r22, 0x0F	; 15
 254:	80 ed       	ldi	r24, 0xD0	; 208
 256:	0e 94 c5 00 	call	0x18a	; 0x18a <TWI_read_buf>
 25a:	8b 81       	ldd	r24, Y+3	; 0x03
 25c:	83 fd       	sbrc	r24, 3
 25e:	08 c0       	rjmp	.+16     	; 0x270 <DS3231_get_temperature+0x74>
 260:	9e 01       	movw	r18, r28
 262:	2f 5f       	subi	r18, 0xFF	; 255
 264:	3f 4f       	sbci	r19, 0xFF	; 255
 266:	41 e0       	ldi	r20, 0x01	; 1
 268:	6e e0       	ldi	r22, 0x0E	; 14
 26a:	80 ed       	ldi	r24, 0xD0	; 208
 26c:	0e 94 96 00 	call	0x12c	; 0x12c <TWI_write_buf>
 270:	0f 90       	pop	r0
 272:	0f 90       	pop	r0
 274:	0f 90       	pop	r0
 276:	df 91       	pop	r29
 278:	cf 91       	pop	r28
 27a:	1f 91       	pop	r17
 27c:	0f 91       	pop	r16
 27e:	08 95       	ret

00000280 <DS3231_init>:
 280:	cf 93       	push	r28
 282:	df 93       	push	r29
 284:	1f 92       	push	r1
 286:	cd b7       	in	r28, 0x3d	; 61
 288:	de b7       	in	r29, 0x3e	; 62
 28a:	19 82       	std	Y+1, r1	; 0x01
 28c:	9e 01       	movw	r18, r28
 28e:	2f 5f       	subi	r18, 0xFF	; 255
 290:	3f 4f       	sbci	r19, 0xFF	; 255
 292:	41 e0       	ldi	r20, 0x01	; 1
 294:	6e e0       	ldi	r22, 0x0E	; 14
 296:	80 ed       	ldi	r24, 0xD0	; 208
 298:	0e 94 96 00 	call	0x12c	; 0x12c <TWI_write_buf>
 29c:	0f 90       	pop	r0
 29e:	df 91       	pop	r29
 2a0:	cf 91       	pop	r28
 2a2:	08 95       	ret

000002a4 <dec2bcd>:
 2a4:	6a e0       	ldi	r22, 0x0A	; 10
 2a6:	0e 94 78 04 	call	0x8f0	; 0x8f0 <__udivmodqi4>
 2aa:	29 2f       	mov	r18, r25
 2ac:	30 e1       	ldi	r19, 0x10	; 16
 2ae:	83 9f       	mul	r24, r19
 2b0:	c0 01       	movw	r24, r0
 2b2:	11 24       	eor	r1, r1
 2b4:	82 2b       	or	r24, r18
 2b6:	08 95       	ret

000002b8 <DS3231_set_datetime>:
 2b8:	cf 93       	push	r28
 2ba:	df 93       	push	r29
 2bc:	00 d0       	rcall	.+0      	; 0x2be <DS3231_set_datetime+0x6>
 2be:	00 d0       	rcall	.+0      	; 0x2c0 <DS3231_set_datetime+0x8>
 2c0:	cd b7       	in	r28, 0x3d	; 61
 2c2:	de b7       	in	r29, 0x3e	; 62
 2c4:	19 82       	std	Y+1, r1	; 0x01
 2c6:	6c 83       	std	Y+4, r22	; 0x04
 2c8:	0e 94 52 01 	call	0x2a4	; 0x2a4 <dec2bcd>
 2cc:	8a 83       	std	Y+2, r24	; 0x02
 2ce:	6c 81       	ldd	r22, Y+4	; 0x04
 2d0:	86 2f       	mov	r24, r22
 2d2:	0e 94 52 01 	call	0x2a4	; 0x2a4 <dec2bcd>
 2d6:	8b 83       	std	Y+3, r24	; 0x03
 2d8:	9e 01       	movw	r18, r28
 2da:	2f 5f       	subi	r18, 0xFF	; 255
 2dc:	3f 4f       	sbci	r19, 0xFF	; 255
 2de:	43 e0       	ldi	r20, 0x03	; 3
 2e0:	60 e0       	ldi	r22, 0x00	; 0
 2e2:	80 ed       	ldi	r24, 0xD0	; 208
 2e4:	0e 94 96 00 	call	0x12c	; 0x12c <TWI_write_buf>
 2e8:	0f 90       	pop	r0
 2ea:	0f 90       	pop	r0
 2ec:	0f 90       	pop	r0
 2ee:	0f 90       	pop	r0
 2f0:	df 91       	pop	r29
 2f2:	cf 91       	pop	r28
 2f4:	08 95       	ret

000002f6 <bcd2dec>:
 2f6:	98 2f       	mov	r25, r24
 2f8:	92 95       	swap	r25
 2fa:	9f 70       	andi	r25, 0x0F	; 15
 2fc:	8f 70       	andi	r24, 0x0F	; 15
 2fe:	2a e0       	ldi	r18, 0x0A	; 10
 300:	92 9f       	mul	r25, r18
 302:	80 0d       	add	r24, r0
 304:	11 24       	eor	r1, r1
 306:	08 95       	ret

00000308 <DS3231_get_datetime>:
 308:	cf 92       	push	r12
 30a:	df 92       	push	r13
 30c:	ef 92       	push	r14
 30e:	ff 92       	push	r15
 310:	0f 93       	push	r16
 312:	1f 93       	push	r17
 314:	cf 93       	push	r28
 316:	df 93       	push	r29
 318:	cd b7       	in	r28, 0x3d	; 61
 31a:	de b7       	in	r29, 0x3e	; 62
 31c:	28 97       	sbiw	r28, 0x08	; 8
 31e:	0f b6       	in	r0, 0x3f	; 63
 320:	f8 94       	cli
 322:	de bf       	out	0x3e, r29	; 62
 324:	0f be       	out	0x3f, r0	; 63
 326:	cd bf       	out	0x3d, r28	; 61
 328:	d8 2e       	mov	r13, r24
 32a:	9e 01       	movw	r18, r28
 32c:	2f 5f       	subi	r18, 0xFF	; 255
 32e:	3f 4f       	sbci	r19, 0xFF	; 255
 330:	47 e0       	ldi	r20, 0x07	; 7
 332:	60 e0       	ldi	r22, 0x00	; 0
 334:	80 ed       	ldi	r24, 0xD0	; 208
 336:	98 87       	std	Y+8, r25	; 0x08
 338:	0e 94 c5 00 	call	0x18a	; 0x18a <TWI_read_buf>
 33c:	9e 01       	movw	r18, r28
 33e:	2f 5f       	subi	r18, 0xFF	; 255
 340:	3f 4f       	sbci	r19, 0xFF	; 255
 342:	79 01       	movw	r14, r18
 344:	0d 2d       	mov	r16, r13
 346:	98 85       	ldd	r25, Y+8	; 0x08
 348:	19 2f       	mov	r17, r25
 34a:	6e 01       	movw	r12, r28
 34c:	38 e0       	ldi	r19, 0x08	; 8
 34e:	c3 0e       	add	r12, r19
 350:	d1 1c       	adc	r13, r1
 352:	f7 01       	movw	r30, r14
 354:	81 91       	ld	r24, Z+
 356:	7f 01       	movw	r14, r30
 358:	0e 94 7b 01 	call	0x2f6	; 0x2f6 <bcd2dec>
 35c:	f8 01       	movw	r30, r16
 35e:	81 93       	st	Z+, r24
 360:	8f 01       	movw	r16, r30
 362:	ec 14       	cp	r14, r12
 364:	fd 04       	cpc	r15, r13
 366:	a9 f7       	brne	.-22     	; 0x352 <DS3231_get_datetime+0x4a>
 368:	28 96       	adiw	r28, 0x08	; 8
 36a:	0f b6       	in	r0, 0x3f	; 63
 36c:	f8 94       	cli
 36e:	de bf       	out	0x3e, r29	; 62
 370:	0f be       	out	0x3f, r0	; 63
 372:	cd bf       	out	0x3d, r28	; 61
 374:	df 91       	pop	r29
 376:	cf 91       	pop	r28
 378:	1f 91       	pop	r17
 37a:	0f 91       	pop	r16
 37c:	ff 90       	pop	r15
 37e:	ef 90       	pop	r14
 380:	df 90       	pop	r13
 382:	cf 90       	pop	r12
 384:	08 95       	ret

00000386 <main>:
 386:	84 e6       	ldi	r24, 0x64	; 100
 388:	90 e0       	ldi	r25, 0x00	; 0
 38a:	0e 94 5c 00 	call	0xb8	; 0xb8 <i2cSetBitrate>
 38e:	0e 94 40 01 	call	0x280	; 0x280 <DS3231_init>
 392:	84 b5       	in	r24, 0x24	; 36
 394:	82 60       	ori	r24, 0x02	; 2
 396:	84 bd       	out	0x24, r24	; 36
 398:	85 b5       	in	r24, 0x25	; 37
 39a:	85 60       	ori	r24, 0x05	; 5
 39c:	85 bd       	out	0x25, r24	; 37
 39e:	8e e1       	ldi	r24, 0x1E	; 30
 3a0:	87 bd       	out	0x27, r24	; 39
 3a2:	80 91 6e 00 	lds	r24, 0x006E
 3a6:	82 60       	ori	r24, 0x02	; 2
 3a8:	80 93 6e 00 	sts	0x006E, r24
 3ac:	80 91 b0 00 	lds	r24, 0x00B0
 3b0:	82 60       	ori	r24, 0x02	; 2
 3b2:	80 93 b0 00 	sts	0x00B0, r24
 3b6:	80 91 b1 00 	lds	r24, 0x00B1
 3ba:	87 60       	ori	r24, 0x07	; 7
 3bc:	80 93 b1 00 	sts	0x00B1, r24
 3c0:	8a e0       	ldi	r24, 0x0A	; 10
 3c2:	80 93 b3 00 	sts	0x00B3, r24
 3c6:	80 91 70 00 	lds	r24, 0x0070
 3ca:	82 60       	ori	r24, 0x02	; 2
 3cc:	80 93 70 00 	sts	0x0070, r24
 3d0:	26 98       	cbi	0x04, 6	; 4
 3d2:	2e 9a       	sbi	0x05, 6	; 5
 3d4:	80 91 68 00 	lds	r24, 0x0068
 3d8:	81 60       	ori	r24, 0x01	; 1
 3da:	80 93 68 00 	sts	0x0068, r24
 3de:	80 91 6b 00 	lds	r24, 0x006B
 3e2:	80 64       	ori	r24, 0x40	; 64
 3e4:	80 93 6b 00 	sts	0x006B, r24
 3e8:	78 94       	sei
 3ea:	55 98       	cbi	0x0a, 5	; 10
 3ec:	5d 9a       	sbi	0x0b, 5	; 11
 3ee:	56 98       	cbi	0x0a, 6	; 10
 3f0:	5e 9a       	sbi	0x0b, 6	; 11
 3f2:	27 98       	cbi	0x04, 7	; 4
 3f4:	2f 9a       	sbi	0x05, 7	; 5
 3f6:	87 b1       	in	r24, 0x07	; 7
 3f8:	8f 60       	ori	r24, 0x0F	; 15
 3fa:	87 b9       	out	0x07, r24	; 7
 3fc:	8a b1       	in	r24, 0x0a	; 10
 3fe:	8e 61       	ori	r24, 0x1E	; 30
 400:	8a b9       	out	0x0a, r24	; 10
 402:	50 9a       	sbi	0x0a, 0	; 10
 404:	22 9a       	sbi	0x04, 2	; 4
 406:	20 9a       	sbi	0x04, 0	; 4
 408:	58 98       	cbi	0x0b, 0	; 11
 40a:	1a e0       	ldi	r17, 0x0A	; 10
 40c:	ca e0       	ldi	r28, 0x0A	; 10
 40e:	d0 e0       	ldi	r29, 0x00	; 0
 410:	85 e1       	ldi	r24, 0x15	; 21
 412:	91 e0       	ldi	r25, 0x01	; 1
 414:	0e 94 84 01 	call	0x308	; 0x308 <DS3231_get_datetime>
 418:	81 e1       	ldi	r24, 0x11	; 17
 41a:	91 e0       	ldi	r25, 0x01	; 1
 41c:	0e 94 fe 00 	call	0x1fc	; 0x1fc <DS3231_get_temperature>
 420:	80 91 15 01 	lds	r24, 0x0115
 424:	80 93 10 01 	sts	0x0110, r24
 428:	80 91 16 01 	lds	r24, 0x0116
 42c:	80 93 22 01 	sts	0x0122, r24
 430:	80 91 17 01 	lds	r24, 0x0117
 434:	80 93 0f 01 	sts	0x010F, r24
 438:	80 91 22 01 	lds	r24, 0x0122
 43c:	61 2f       	mov	r22, r17
 43e:	0e 94 78 04 	call	0x8f0	; 0x8f0 <__udivmodqi4>
 442:	90 93 1e 01 	sts	0x011E, r25
 446:	80 91 22 01 	lds	r24, 0x0122
 44a:	0e 94 78 04 	call	0x8f0	; 0x8f0 <__udivmodqi4>
 44e:	0e 94 78 04 	call	0x8f0	; 0x8f0 <__udivmodqi4>
 452:	90 93 1d 01 	sts	0x011D, r25
 456:	80 91 0f 01 	lds	r24, 0x010F
 45a:	0e 94 78 04 	call	0x8f0	; 0x8f0 <__udivmodqi4>
 45e:	90 93 20 01 	sts	0x0120, r25
 462:	80 91 0f 01 	lds	r24, 0x010F
 466:	0e 94 78 04 	call	0x8f0	; 0x8f0 <__udivmodqi4>
 46a:	0e 94 78 04 	call	0x8f0	; 0x8f0 <__udivmodqi4>
 46e:	90 93 14 01 	sts	0x0114, r25
 472:	80 91 11 01 	lds	r24, 0x0111
 476:	90 91 12 01 	lds	r25, 0x0112
 47a:	be 01       	movw	r22, r28
 47c:	0e 94 98 04 	call	0x930	; 0x930 <__divmodhi4>
 480:	48 2f       	mov	r20, r24
 482:	cb 01       	movw	r24, r22
 484:	be 01       	movw	r22, r28
 486:	0e 94 98 04 	call	0x930	; 0x930 <__divmodhi4>
 48a:	28 2f       	mov	r18, r24
 48c:	80 91 13 01 	lds	r24, 0x0113
 490:	39 e1       	ldi	r19, 0x19	; 25
 492:	83 9f       	mul	r24, r19
 494:	c0 01       	movw	r24, r0
 496:	11 24       	eor	r1, r1
 498:	be 01       	movw	r22, r28
 49a:	0e 94 98 04 	call	0x930	; 0x930 <__divmodhi4>
 49e:	1f 99       	sbic	0x03, 7	; 3
 4a0:	b7 cf       	rjmp	.-146    	; 0x410 <main+0x8a>
 4a2:	40 93 0c 01 	sts	0x010C, r20
 4a6:	20 93 1f 01 	sts	0x011F, r18
 4aa:	10 92 0e 01 	sts	0x010E, r1
 4ae:	60 93 0d 01 	sts	0x010D, r22
 4b2:	80 91 0c 01 	lds	r24, 0x010C
 4b6:	80 93 20 01 	sts	0x0120, r24
 4ba:	80 91 1f 01 	lds	r24, 0x011F
 4be:	80 93 14 01 	sts	0x0114, r24
 4c2:	80 91 0e 01 	lds	r24, 0x010E
 4c6:	80 93 1e 01 	sts	0x011E, r24
 4ca:	80 91 0d 01 	lds	r24, 0x010D
 4ce:	80 93 1d 01 	sts	0x011D, r24
 4d2:	e5 cf       	rjmp	.-54     	; 0x49e <main+0x118>

000004d4 <__vector_3>:
 4d4:	1f 92       	push	r1
 4d6:	0f 92       	push	r0
 4d8:	0f b6       	in	r0, 0x3f	; 63
 4da:	0f 92       	push	r0
 4dc:	11 24       	eor	r1, r1
 4de:	2f 93       	push	r18
 4e0:	3f 93       	push	r19
 4e2:	4f 93       	push	r20
 4e4:	5f 93       	push	r21
 4e6:	6f 93       	push	r22
 4e8:	7f 93       	push	r23
 4ea:	8f 93       	push	r24
 4ec:	9f 93       	push	r25
 4ee:	af 93       	push	r26
 4f0:	bf 93       	push	r27
 4f2:	ef 93       	push	r30
 4f4:	ff 93       	push	r31
 4f6:	1e 99       	sbic	0x03, 6	; 3
 4f8:	73 c1       	rjmp	.+742    	; 0x7e0 <__stack+0x2e1>
 4fa:	2f ef       	ldi	r18, 0xFF	; 255
 4fc:	34 e3       	ldi	r19, 0x34	; 52
 4fe:	4c e0       	ldi	r20, 0x0C	; 12
 500:	21 50       	subi	r18, 0x01	; 1
 502:	30 40       	sbci	r19, 0x00	; 0
 504:	40 40       	sbci	r20, 0x00	; 0
 506:	e1 f7       	brne	.-8      	; 0x500 <__stack+0x1>
 508:	00 c0       	rjmp	.+0      	; 0x50a <__stack+0xb>
 50a:	00 00       	nop
 50c:	5f 9a       	sbi	0x0b, 7	; 11
 50e:	58 98       	cbi	0x0b, 0	; 11
 510:	59 9a       	sbi	0x0b, 1	; 11
 512:	5a 9a       	sbi	0x0b, 2	; 11
 514:	5b 9a       	sbi	0x0b, 3	; 11
 516:	5c 9a       	sbi	0x0b, 4	; 11
 518:	21 e0       	ldi	r18, 0x01	; 1
 51a:	53 e0       	ldi	r21, 0x03	; 3
 51c:	4a e0       	ldi	r20, 0x0A	; 10
 51e:	a6 e0       	ldi	r26, 0x06	; 6
 520:	a8 95       	wdr
 522:	22 30       	cpi	r18, 0x02	; 2
 524:	09 f4       	brne	.+2      	; 0x528 <__stack+0x29>
 526:	50 c0       	rjmp	.+160    	; 0x5c8 <__stack+0xc9>
 528:	60 f4       	brcc	.+24     	; 0x542 <__stack+0x43>
 52a:	21 30       	cpi	r18, 0x01	; 1
 52c:	09 f0       	breq	.+2      	; 0x530 <__stack+0x31>
 52e:	1b c1       	rjmp	.+566    	; 0x766 <__stack+0x267>
 530:	88 b1       	in	r24, 0x08	; 8
 532:	80 7f       	andi	r24, 0xF0	; 240
 534:	88 b9       	out	0x08, r24	; 8
 536:	8b b1       	in	r24, 0x0b	; 11
 538:	83 7e       	andi	r24, 0xE3	; 227
 53a:	8b b9       	out	0x0b, r24	; 11
 53c:	59 9a       	sbi	0x0b, 1	; 11
 53e:	30 e0       	ldi	r19, 0x00	; 0
 540:	27 c0       	rjmp	.+78     	; 0x590 <__stack+0x91>
 542:	23 30       	cpi	r18, 0x03	; 3
 544:	09 f4       	brne	.+2      	; 0x548 <__stack+0x49>
 546:	82 c0       	rjmp	.+260    	; 0x64c <__stack+0x14d>
 548:	24 30       	cpi	r18, 0x04	; 4
 54a:	09 f0       	breq	.+2      	; 0x54e <__stack+0x4f>
 54c:	0c c1       	rjmp	.+536    	; 0x766 <__stack+0x267>
 54e:	30 e0       	ldi	r19, 0x00	; 0
 550:	c0 c0       	rjmp	.+384    	; 0x6d2 <__stack+0x1d3>
 552:	4d 99       	sbic	0x09, 5	; 9
 554:	20 c0       	rjmp	.+64     	; 0x596 <__stack+0x97>
 556:	4d 9b       	sbis	0x09, 5	; 9
 558:	fe cf       	rjmp	.-4      	; 0x556 <__stack+0x57>
 55a:	81 e0       	ldi	r24, 0x01	; 1
 55c:	83 0f       	add	r24, r19
 55e:	64 2f       	mov	r22, r20
 560:	0e 94 78 04 	call	0x8f0	; 0x8f0 <__udivmodqi4>
 564:	39 2f       	mov	r19, r25
 566:	88 b1       	in	r24, 0x08	; 8
 568:	80 7f       	andi	r24, 0xF0	; 240
 56a:	88 b9       	out	0x08, r24	; 8
 56c:	88 b1       	in	r24, 0x08	; 8
 56e:	e3 2f       	mov	r30, r19
 570:	f0 e0       	ldi	r31, 0x00	; 0
 572:	ef 5f       	subi	r30, 0xFF	; 255
 574:	fe 4f       	sbci	r31, 0xFE	; 254
 576:	90 81       	ld	r25, Z
 578:	89 2b       	or	r24, r25
 57a:	88 b9       	out	0x08, r24	; 8
 57c:	9f ef       	ldi	r25, 0xFF	; 255
 57e:	e0 e7       	ldi	r30, 0x70	; 112
 580:	f2 e0       	ldi	r31, 0x02	; 2
 582:	91 50       	subi	r25, 0x01	; 1
 584:	e0 40       	sbci	r30, 0x00	; 0
 586:	f0 40       	sbci	r31, 0x00	; 0
 588:	e1 f7       	brne	.-8      	; 0x582 <__stack+0x83>
 58a:	00 c0       	rjmp	.+0      	; 0x58c <__stack+0x8d>
 58c:	00 00       	nop
 58e:	2f 5f       	subi	r18, 0xFF	; 255
 590:	1f 99       	sbic	0x03, 7	; 3
 592:	df cf       	rjmp	.-66     	; 0x552 <__stack+0x53>
 594:	10 c0       	rjmp	.+32     	; 0x5b6 <__stack+0xb7>
 596:	4e 99       	sbic	0x09, 6	; 9
 598:	e6 cf       	rjmp	.-52     	; 0x566 <__stack+0x67>
 59a:	4e 9b       	sbis	0x09, 6	; 9
 59c:	fe cf       	rjmp	.-4      	; 0x59a <__stack+0x9b>
 59e:	8f e3       	ldi	r24, 0x3F	; 63
 5a0:	9c e9       	ldi	r25, 0x9C	; 156
 5a2:	01 97       	sbiw	r24, 0x01	; 1
 5a4:	f1 f7       	brne	.-4      	; 0x5a2 <__stack+0xa3>
 5a6:	00 c0       	rjmp	.+0      	; 0x5a8 <__stack+0xa9>
 5a8:	00 00       	nop
 5aa:	33 23       	and	r19, r19
 5ac:	11 f0       	breq	.+4      	; 0x5b2 <__stack+0xb3>
 5ae:	31 50       	subi	r19, 0x01	; 1
 5b0:	da cf       	rjmp	.-76     	; 0x566 <__stack+0x67>
 5b2:	39 e0       	ldi	r19, 0x09	; 9
 5b4:	d8 cf       	rjmp	.-80     	; 0x566 <__stack+0x67>
 5b6:	1f 99       	sbic	0x03, 7	; 3
 5b8:	08 c0       	rjmp	.+16     	; 0x5ca <__stack+0xcb>
 5ba:	8f e3       	ldi	r24, 0x3F	; 63
 5bc:	9c e9       	ldi	r25, 0x9C	; 156
 5be:	01 97       	sbiw	r24, 0x01	; 1
 5c0:	f1 f7       	brne	.-4      	; 0x5be <__stack+0xbf>
 5c2:	00 c0       	rjmp	.+0      	; 0x5c4 <__stack+0xc5>
 5c4:	00 00       	nop
 5c6:	f7 cf       	rjmp	.-18     	; 0x5b6 <__stack+0xb7>
 5c8:	30 e0       	ldi	r19, 0x00	; 0
 5ca:	88 b1       	in	r24, 0x08	; 8
 5cc:	80 7f       	andi	r24, 0xF0	; 240
 5ce:	88 b9       	out	0x08, r24	; 8
 5d0:	8b b1       	in	r24, 0x0b	; 11
 5d2:	85 7e       	andi	r24, 0xE5	; 229
 5d4:	8b b9       	out	0x0b, r24	; 11
 5d6:	5a 9a       	sbi	0x0b, 2	; 11
 5d8:	90 e0       	ldi	r25, 0x00	; 0
 5da:	1f 9b       	sbis	0x03, 7	; 3
 5dc:	28 c0       	rjmp	.+80     	; 0x62e <__stack+0x12f>
 5de:	4d 99       	sbic	0x09, 5	; 9
 5e0:	08 c0       	rjmp	.+16     	; 0x5f2 <__stack+0xf3>
 5e2:	4d 9b       	sbis	0x09, 5	; 9
 5e4:	fe cf       	rjmp	.-4      	; 0x5e2 <__stack+0xe3>
 5e6:	81 e0       	ldi	r24, 0x01	; 1
 5e8:	89 0f       	add	r24, r25
 5ea:	6a 2f       	mov	r22, r26
 5ec:	0e 94 78 04 	call	0x8f0	; 0x8f0 <__udivmodqi4>
 5f0:	09 c0       	rjmp	.+18     	; 0x604 <__stack+0x105>
 5f2:	4e 99       	sbic	0x09, 6	; 9
 5f4:	07 c0       	rjmp	.+14     	; 0x604 <__stack+0x105>
 5f6:	4e 9b       	sbis	0x09, 6	; 9
 5f8:	fe cf       	rjmp	.-4      	; 0x5f6 <__stack+0xf7>
 5fa:	99 23       	and	r25, r25
 5fc:	11 f0       	breq	.+4      	; 0x602 <__stack+0x103>
 5fe:	91 50       	subi	r25, 0x01	; 1
 600:	01 c0       	rjmp	.+2      	; 0x604 <__stack+0x105>
 602:	95 e0       	ldi	r25, 0x05	; 5
 604:	88 b1       	in	r24, 0x08	; 8
 606:	80 7f       	andi	r24, 0xF0	; 240
 608:	88 b9       	out	0x08, r24	; 8
 60a:	88 b1       	in	r24, 0x08	; 8
 60c:	e9 2f       	mov	r30, r25
 60e:	f0 e0       	ldi	r31, 0x00	; 0
 610:	ef 5f       	subi	r30, 0xFF	; 255
 612:	fe 4f       	sbci	r31, 0xFE	; 254
 614:	60 81       	ld	r22, Z
 616:	86 2b       	or	r24, r22
 618:	88 b9       	out	0x08, r24	; 8
 61a:	ef ef       	ldi	r30, 0xFF	; 255
 61c:	f0 e7       	ldi	r31, 0x70	; 112
 61e:	62 e0       	ldi	r22, 0x02	; 2
 620:	e1 50       	subi	r30, 0x01	; 1
 622:	f0 40       	sbci	r31, 0x00	; 0
 624:	60 40       	sbci	r22, 0x00	; 0
 626:	e1 f7       	brne	.-8      	; 0x620 <__stack+0x121>
 628:	00 c0       	rjmp	.+0      	; 0x62a <__stack+0x12b>
 62a:	00 00       	nop
 62c:	d6 cf       	rjmp	.-84     	; 0x5da <__stack+0xdb>
 62e:	1f 99       	sbic	0x03, 7	; 3
 630:	07 c0       	rjmp	.+14     	; 0x640 <__stack+0x141>
 632:	ef e3       	ldi	r30, 0x3F	; 63
 634:	fc e9       	ldi	r31, 0x9C	; 156
 636:	31 97       	sbiw	r30, 0x01	; 1
 638:	f1 f7       	brne	.-4      	; 0x636 <__stack+0x137>
 63a:	00 c0       	rjmp	.+0      	; 0x63c <__stack+0x13d>
 63c:	00 00       	nop
 63e:	f7 cf       	rjmp	.-18     	; 0x62e <__stack+0x12f>
 640:	fa e0       	ldi	r31, 0x0A	; 10
 642:	9f 9f       	mul	r25, r31
 644:	30 0d       	add	r19, r0
 646:	11 24       	eor	r1, r1
 648:	30 93 21 01 	sts	0x0121, r19
 64c:	88 b1       	in	r24, 0x08	; 8
 64e:	80 7f       	andi	r24, 0xF0	; 240
 650:	88 b9       	out	0x08, r24	; 8
 652:	8b b1       	in	r24, 0x0b	; 11
 654:	89 7e       	andi	r24, 0xE9	; 233
 656:	8b b9       	out	0x0b, r24	; 11
 658:	5b 9a       	sbi	0x0b, 3	; 11
 65a:	30 e0       	ldi	r19, 0x00	; 0
 65c:	1f 9b       	sbis	0x03, 7	; 3
 65e:	30 c0       	rjmp	.+96     	; 0x6c0 <__stack+0x1c1>
 660:	4d 99       	sbic	0x09, 5	; 9
 662:	09 c0       	rjmp	.+18     	; 0x676 <__stack+0x177>
 664:	4d 9b       	sbis	0x09, 5	; 9
 666:	fe cf       	rjmp	.-4      	; 0x664 <__stack+0x165>
 668:	81 e0       	ldi	r24, 0x01	; 1
 66a:	83 0f       	add	r24, r19
 66c:	64 2f       	mov	r22, r20
 66e:	0e 94 78 04 	call	0x8f0	; 0x8f0 <__udivmodqi4>
 672:	39 2f       	mov	r19, r25
 674:	0f c0       	rjmp	.+30     	; 0x694 <__stack+0x195>
 676:	4e 99       	sbic	0x09, 6	; 9
 678:	0d c0       	rjmp	.+26     	; 0x694 <__stack+0x195>
 67a:	4e 9b       	sbis	0x09, 6	; 9
 67c:	fe cf       	rjmp	.-4      	; 0x67a <__stack+0x17b>
 67e:	8f e3       	ldi	r24, 0x3F	; 63
 680:	9c e9       	ldi	r25, 0x9C	; 156
 682:	01 97       	sbiw	r24, 0x01	; 1
 684:	f1 f7       	brne	.-4      	; 0x682 <__stack+0x183>
 686:	00 c0       	rjmp	.+0      	; 0x688 <__stack+0x189>
 688:	00 00       	nop
 68a:	33 23       	and	r19, r19
 68c:	11 f0       	breq	.+4      	; 0x692 <__stack+0x193>
 68e:	31 50       	subi	r19, 0x01	; 1
 690:	01 c0       	rjmp	.+2      	; 0x694 <__stack+0x195>
 692:	39 e0       	ldi	r19, 0x09	; 9
 694:	88 b1       	in	r24, 0x08	; 8
 696:	80 7f       	andi	r24, 0xF0	; 240
 698:	88 b9       	out	0x08, r24	; 8
 69a:	88 b1       	in	r24, 0x08	; 8
 69c:	e3 2f       	mov	r30, r19
 69e:	f0 e0       	ldi	r31, 0x00	; 0
 6a0:	ef 5f       	subi	r30, 0xFF	; 255
 6a2:	fe 4f       	sbci	r31, 0xFE	; 254
 6a4:	90 81       	ld	r25, Z
 6a6:	89 2b       	or	r24, r25
 6a8:	88 b9       	out	0x08, r24	; 8
 6aa:	9f ef       	ldi	r25, 0xFF	; 255
 6ac:	e0 e7       	ldi	r30, 0x70	; 112
 6ae:	f2 e0       	ldi	r31, 0x02	; 2
 6b0:	91 50       	subi	r25, 0x01	; 1
 6b2:	e0 40       	sbci	r30, 0x00	; 0
 6b4:	f0 40       	sbci	r31, 0x00	; 0
 6b6:	e1 f7       	brne	.-8      	; 0x6b0 <__stack+0x1b1>
 6b8:	00 c0       	rjmp	.+0      	; 0x6ba <__stack+0x1bb>
 6ba:	00 00       	nop
 6bc:	2f 5f       	subi	r18, 0xFF	; 255
 6be:	ce cf       	rjmp	.-100    	; 0x65c <__stack+0x15d>
 6c0:	1f 99       	sbic	0x03, 7	; 3
 6c2:	07 c0       	rjmp	.+14     	; 0x6d2 <__stack+0x1d3>
 6c4:	8f e3       	ldi	r24, 0x3F	; 63
 6c6:	9c e9       	ldi	r25, 0x9C	; 156
 6c8:	01 97       	sbiw	r24, 0x01	; 1
 6ca:	f1 f7       	brne	.-4      	; 0x6c8 <__stack+0x1c9>
 6cc:	00 c0       	rjmp	.+0      	; 0x6ce <__stack+0x1cf>
 6ce:	00 00       	nop
 6d0:	f7 cf       	rjmp	.-18     	; 0x6c0 <__stack+0x1c1>
 6d2:	88 b1       	in	r24, 0x08	; 8
 6d4:	80 7f       	andi	r24, 0xF0	; 240
 6d6:	88 b9       	out	0x08, r24	; 8
 6d8:	8b b1       	in	r24, 0x0b	; 11
 6da:	81 7f       	andi	r24, 0xF1	; 241
 6dc:	8b b9       	out	0x0b, r24	; 11
 6de:	5c 9a       	sbi	0x0b, 4	; 11
 6e0:	90 e0       	ldi	r25, 0x00	; 0
 6e2:	1f 9b       	sbis	0x03, 7	; 3
 6e4:	29 c0       	rjmp	.+82     	; 0x738 <__stack+0x239>
 6e6:	4d 99       	sbic	0x09, 5	; 9
 6e8:	08 c0       	rjmp	.+16     	; 0x6fa <__stack+0x1fb>
 6ea:	4d 9b       	sbis	0x09, 5	; 9
 6ec:	fe cf       	rjmp	.-4      	; 0x6ea <__stack+0x1eb>
 6ee:	81 e0       	ldi	r24, 0x01	; 1
 6f0:	89 0f       	add	r24, r25
 6f2:	65 2f       	mov	r22, r21
 6f4:	0e 94 78 04 	call	0x8f0	; 0x8f0 <__udivmodqi4>
 6f8:	09 c0       	rjmp	.+18     	; 0x70c <__stack+0x20d>
 6fa:	4e 99       	sbic	0x09, 6	; 9
 6fc:	07 c0       	rjmp	.+14     	; 0x70c <__stack+0x20d>
 6fe:	4e 9b       	sbis	0x09, 6	; 9
 700:	fe cf       	rjmp	.-4      	; 0x6fe <__stack+0x1ff>
 702:	99 23       	and	r25, r25
 704:	11 f0       	breq	.+4      	; 0x70a <__stack+0x20b>
 706:	91 50       	subi	r25, 0x01	; 1
 708:	01 c0       	rjmp	.+2      	; 0x70c <__stack+0x20d>
 70a:	92 e0       	ldi	r25, 0x02	; 2
 70c:	88 b1       	in	r24, 0x08	; 8
 70e:	80 7f       	andi	r24, 0xF0	; 240
 710:	88 b9       	out	0x08, r24	; 8
 712:	88 b1       	in	r24, 0x08	; 8
 714:	e9 2f       	mov	r30, r25
 716:	f0 e0       	ldi	r31, 0x00	; 0
 718:	ef 5f       	subi	r30, 0xFF	; 255
 71a:	fe 4f       	sbci	r31, 0xFE	; 254
 71c:	60 81       	ld	r22, Z
 71e:	86 2b       	or	r24, r22
 720:	88 b9       	out	0x08, r24	; 8
 722:	ef ef       	ldi	r30, 0xFF	; 255
 724:	f0 e7       	ldi	r31, 0x70	; 112
 726:	62 e0       	ldi	r22, 0x02	; 2
 728:	e1 50       	subi	r30, 0x01	; 1
 72a:	f0 40       	sbci	r31, 0x00	; 0
 72c:	60 40       	sbci	r22, 0x00	; 0
 72e:	e1 f7       	brne	.-8      	; 0x728 <__stack+0x229>
 730:	00 c0       	rjmp	.+0      	; 0x732 <__stack+0x233>
 732:	00 00       	nop
 734:	2f 5f       	subi	r18, 0xFF	; 255
 736:	d5 cf       	rjmp	.-86     	; 0x6e2 <__stack+0x1e3>
 738:	1f 99       	sbic	0x03, 7	; 3
 73a:	07 c0       	rjmp	.+14     	; 0x74a <__stack+0x24b>
 73c:	ef e3       	ldi	r30, 0x3F	; 63
 73e:	fc e9       	ldi	r31, 0x9C	; 156
 740:	31 97       	sbiw	r30, 0x01	; 1
 742:	f1 f7       	brne	.-4      	; 0x740 <__stack+0x241>
 744:	00 c0       	rjmp	.+0      	; 0x746 <__stack+0x247>
 746:	00 00       	nop
 748:	f7 cf       	rjmp	.-18     	; 0x738 <__stack+0x239>
 74a:	fa e0       	ldi	r31, 0x0A	; 10
 74c:	9f 9f       	mul	r25, r31
 74e:	30 0d       	add	r19, r0
 750:	11 24       	eor	r1, r1
 752:	38 31       	cpi	r19, 0x18	; 24
 754:	18 f4       	brcc	.+6      	; 0x75c <__stack+0x25d>
 756:	30 93 1c 01 	sts	0x011C, r19
 75a:	02 c0       	rjmp	.+4      	; 0x760 <__stack+0x261>
 75c:	10 92 1c 01 	sts	0x011C, r1
 760:	8b b1       	in	r24, 0x0b	; 11
 762:	8e 61       	ori	r24, 0x1E	; 30
 764:	8b b9       	out	0x0b, r24	; 11
 766:	1e 99       	sbic	0x03, 6	; 3
 768:	db ce       	rjmp	.-586    	; 0x520 <__stack+0x21>
 76a:	5f 98       	cbi	0x0b, 7	; 11
 76c:	85 e0       	ldi	r24, 0x05	; 5
 76e:	90 e0       	ldi	r25, 0x00	; 0
 770:	2f ef       	ldi	r18, 0xFF	; 255
 772:	30 e7       	ldi	r19, 0x70	; 112
 774:	42 e0       	ldi	r20, 0x02	; 2
 776:	21 50       	subi	r18, 0x01	; 1
 778:	30 40       	sbci	r19, 0x00	; 0
 77a:	40 40       	sbci	r20, 0x00	; 0
 77c:	e1 f7       	brne	.-8      	; 0x776 <__stack+0x277>
 77e:	00 c0       	rjmp	.+0      	; 0x780 <__stack+0x281>
 780:	00 00       	nop
 782:	59 98       	cbi	0x0b, 1	; 11
 784:	5a 98       	cbi	0x0b, 2	; 11
 786:	5b 98       	cbi	0x0b, 3	; 11
 788:	5c 98       	cbi	0x0b, 4	; 11
 78a:	6f ef       	ldi	r22, 0xFF	; 255
 78c:	70 e7       	ldi	r23, 0x70	; 112
 78e:	e2 e0       	ldi	r30, 0x02	; 2
 790:	61 50       	subi	r22, 0x01	; 1
 792:	70 40       	sbci	r23, 0x00	; 0
 794:	e0 40       	sbci	r30, 0x00	; 0
 796:	e1 f7       	brne	.-8      	; 0x790 <__stack+0x291>
 798:	00 c0       	rjmp	.+0      	; 0x79a <__stack+0x29b>
 79a:	00 00       	nop
 79c:	59 9a       	sbi	0x0b, 1	; 11
 79e:	5a 9a       	sbi	0x0b, 2	; 11
 7a0:	5b 9a       	sbi	0x0b, 3	; 11
 7a2:	5c 9a       	sbi	0x0b, 4	; 11
 7a4:	01 97       	sbiw	r24, 0x01	; 1
 7a6:	00 97       	sbiw	r24, 0x00	; 0
 7a8:	19 f7       	brne	.-58     	; 0x770 <__stack+0x271>
 7aa:	60 91 1c 01 	lds	r22, 0x011C
 7ae:	80 91 21 01 	lds	r24, 0x0121
 7b2:	0e 94 5c 01 	call	0x2b8	; 0x2b8 <DS3231_set_datetime>
 7b6:	ff ef       	ldi	r31, 0xFF	; 255
 7b8:	20 e7       	ldi	r18, 0x70	; 112
 7ba:	32 e0       	ldi	r19, 0x02	; 2
 7bc:	f1 50       	subi	r31, 0x01	; 1
 7be:	20 40       	sbci	r18, 0x00	; 0
 7c0:	30 40       	sbci	r19, 0x00	; 0
 7c2:	e1 f7       	brne	.-8      	; 0x7bc <__stack+0x2bd>
 7c4:	00 c0       	rjmp	.+0      	; 0x7c6 <__stack+0x2c7>
 7c6:	00 00       	nop
 7c8:	28 e0       	ldi	r18, 0x08	; 8
 7ca:	88 e1       	ldi	r24, 0x18	; 24
 7cc:	90 e0       	ldi	r25, 0x00	; 0
 7ce:	0f b6       	in	r0, 0x3f	; 63
 7d0:	f8 94       	cli
 7d2:	a8 95       	wdr
 7d4:	80 93 60 00 	sts	0x0060, r24
 7d8:	0f be       	out	0x3f, r0	; 63
 7da:	20 93 60 00 	sts	0x0060, r18
 7de:	ff cf       	rjmp	.-2      	; 0x7de <__stack+0x2df>
 7e0:	ff 91       	pop	r31
 7e2:	ef 91       	pop	r30
 7e4:	bf 91       	pop	r27
 7e6:	af 91       	pop	r26
 7e8:	9f 91       	pop	r25
 7ea:	8f 91       	pop	r24
 7ec:	7f 91       	pop	r23
 7ee:	6f 91       	pop	r22
 7f0:	5f 91       	pop	r21
 7f2:	4f 91       	pop	r20
 7f4:	3f 91       	pop	r19
 7f6:	2f 91       	pop	r18
 7f8:	0f 90       	pop	r0
 7fa:	0f be       	out	0x3f, r0	; 63
 7fc:	0f 90       	pop	r0
 7fe:	1f 90       	pop	r1
 800:	18 95       	reti

00000802 <__vector_14>:
 802:	1f 92       	push	r1
 804:	0f 92       	push	r0
 806:	0f b6       	in	r0, 0x3f	; 63
 808:	0f 92       	push	r0
 80a:	11 24       	eor	r1, r1
 80c:	8f 93       	push	r24
 80e:	9f 93       	push	r25
 810:	ef 93       	push	r30
 812:	ff 93       	push	r31
 814:	80 91 00 01 	lds	r24, 0x0100
 818:	81 30       	cpi	r24, 0x01	; 1
 81a:	79 f4       	brne	.+30     	; 0x83a <__vector_14+0x38>
 81c:	5c 98       	cbi	0x0b, 4	; 11
 81e:	88 b1       	in	r24, 0x08	; 8
 820:	80 7f       	andi	r24, 0xF0	; 240
 822:	88 b9       	out	0x08, r24	; 8
 824:	88 b1       	in	r24, 0x08	; 8
 826:	e0 91 1e 01 	lds	r30, 0x011E
 82a:	f0 e0       	ldi	r31, 0x00	; 0
 82c:	ef 5f       	subi	r30, 0xFF	; 255
 82e:	fe 4f       	sbci	r31, 0xFE	; 254
 830:	90 81       	ld	r25, Z
 832:	89 2b       	or	r24, r25
 834:	88 b9       	out	0x08, r24	; 8
 836:	59 9a       	sbi	0x0b, 1	; 11
 838:	32 c0       	rjmp	.+100    	; 0x89e <__vector_14+0x9c>
 83a:	82 30       	cpi	r24, 0x02	; 2
 83c:	79 f4       	brne	.+30     	; 0x85c <__vector_14+0x5a>
 83e:	59 98       	cbi	0x0b, 1	; 11
 840:	88 b1       	in	r24, 0x08	; 8
 842:	80 7f       	andi	r24, 0xF0	; 240
 844:	88 b9       	out	0x08, r24	; 8
 846:	88 b1       	in	r24, 0x08	; 8
 848:	e0 91 1d 01 	lds	r30, 0x011D
 84c:	f0 e0       	ldi	r31, 0x00	; 0
 84e:	ef 5f       	subi	r30, 0xFF	; 255
 850:	fe 4f       	sbci	r31, 0xFE	; 254
 852:	90 81       	ld	r25, Z
 854:	89 2b       	or	r24, r25
 856:	88 b9       	out	0x08, r24	; 8
 858:	5a 9a       	sbi	0x0b, 2	; 11
 85a:	21 c0       	rjmp	.+66     	; 0x89e <__vector_14+0x9c>
 85c:	83 30       	cpi	r24, 0x03	; 3
 85e:	79 f4       	brne	.+30     	; 0x87e <__vector_14+0x7c>
 860:	5a 98       	cbi	0x0b, 2	; 11
 862:	88 b1       	in	r24, 0x08	; 8
 864:	80 7f       	andi	r24, 0xF0	; 240
 866:	88 b9       	out	0x08, r24	; 8
 868:	88 b1       	in	r24, 0x08	; 8
 86a:	e0 91 20 01 	lds	r30, 0x0120
 86e:	f0 e0       	ldi	r31, 0x00	; 0
 870:	ef 5f       	subi	r30, 0xFF	; 255
 872:	fe 4f       	sbci	r31, 0xFE	; 254
 874:	90 81       	ld	r25, Z
 876:	89 2b       	or	r24, r25
 878:	88 b9       	out	0x08, r24	; 8
 87a:	5b 9a       	sbi	0x0b, 3	; 11
 87c:	10 c0       	rjmp	.+32     	; 0x89e <__vector_14+0x9c>
 87e:	84 30       	cpi	r24, 0x04	; 4
 880:	71 f4       	brne	.+28     	; 0x89e <__vector_14+0x9c>
 882:	5b 98       	cbi	0x0b, 3	; 11
 884:	88 b1       	in	r24, 0x08	; 8
 886:	80 7f       	andi	r24, 0xF0	; 240
 888:	88 b9       	out	0x08, r24	; 8
 88a:	88 b1       	in	r24, 0x08	; 8
 88c:	e0 91 14 01 	lds	r30, 0x0114
 890:	f0 e0       	ldi	r31, 0x00	; 0
 892:	ef 5f       	subi	r30, 0xFF	; 255
 894:	fe 4f       	sbci	r31, 0xFE	; 254
 896:	90 81       	ld	r25, Z
 898:	89 2b       	or	r24, r25
 89a:	88 b9       	out	0x08, r24	; 8
 89c:	5c 9a       	sbi	0x0b, 4	; 11
 89e:	80 91 00 01 	lds	r24, 0x0100
 8a2:	8f 5f       	subi	r24, 0xFF	; 255
 8a4:	85 30       	cpi	r24, 0x05	; 5
 8a6:	09 f4       	brne	.+2      	; 0x8aa <__vector_14+0xa8>
 8a8:	81 e0       	ldi	r24, 0x01	; 1
 8aa:	80 93 00 01 	sts	0x0100, r24
 8ae:	ff 91       	pop	r31
 8b0:	ef 91       	pop	r30
 8b2:	9f 91       	pop	r25
 8b4:	8f 91       	pop	r24
 8b6:	0f 90       	pop	r0
 8b8:	0f be       	out	0x3f, r0	; 63
 8ba:	0f 90       	pop	r0
 8bc:	1f 90       	pop	r1
 8be:	18 95       	reti

000008c0 <__vector_7>:
 8c0:	1f 92       	push	r1
 8c2:	0f 92       	push	r0
 8c4:	0f b6       	in	r0, 0x3f	; 63
 8c6:	0f 92       	push	r0
 8c8:	11 24       	eor	r1, r1
 8ca:	8f 93       	push	r24
 8cc:	9f 93       	push	r25
 8ce:	80 91 10 01 	lds	r24, 0x0110
 8d2:	80 fd       	sbrc	r24, 0
 8d4:	05 c0       	rjmp	.+10     	; 0x8e0 <__vector_7+0x20>
 8d6:	8b b1       	in	r24, 0x0b	; 11
 8d8:	91 e0       	ldi	r25, 0x01	; 1
 8da:	89 27       	eor	r24, r25
 8dc:	8b b9       	out	0x0b, r24	; 11
 8de:	01 c0       	rjmp	.+2      	; 0x8e2 <__vector_7+0x22>
 8e0:	58 98       	cbi	0x0b, 0	; 11
 8e2:	9f 91       	pop	r25
 8e4:	8f 91       	pop	r24
 8e6:	0f 90       	pop	r0
 8e8:	0f be       	out	0x3f, r0	; 63
 8ea:	0f 90       	pop	r0
 8ec:	1f 90       	pop	r1
 8ee:	18 95       	reti

000008f0 <__udivmodqi4>:
 8f0:	99 1b       	sub	r25, r25
 8f2:	79 e0       	ldi	r23, 0x09	; 9
 8f4:	04 c0       	rjmp	.+8      	; 0x8fe <__udivmodqi4_ep>

000008f6 <__udivmodqi4_loop>:
 8f6:	99 1f       	adc	r25, r25
 8f8:	96 17       	cp	r25, r22
 8fa:	08 f0       	brcs	.+2      	; 0x8fe <__udivmodqi4_ep>
 8fc:	96 1b       	sub	r25, r22

000008fe <__udivmodqi4_ep>:
 8fe:	88 1f       	adc	r24, r24
 900:	7a 95       	dec	r23
 902:	c9 f7       	brne	.-14     	; 0x8f6 <__udivmodqi4_loop>
 904:	80 95       	com	r24
 906:	08 95       	ret

00000908 <__udivmodhi4>:
 908:	aa 1b       	sub	r26, r26
 90a:	bb 1b       	sub	r27, r27
 90c:	51 e1       	ldi	r21, 0x11	; 17
 90e:	07 c0       	rjmp	.+14     	; 0x91e <__udivmodhi4_ep>

00000910 <__udivmodhi4_loop>:
 910:	aa 1f       	adc	r26, r26
 912:	bb 1f       	adc	r27, r27
 914:	a6 17       	cp	r26, r22
 916:	b7 07       	cpc	r27, r23
 918:	10 f0       	brcs	.+4      	; 0x91e <__udivmodhi4_ep>
 91a:	a6 1b       	sub	r26, r22
 91c:	b7 0b       	sbc	r27, r23

0000091e <__udivmodhi4_ep>:
 91e:	88 1f       	adc	r24, r24
 920:	99 1f       	adc	r25, r25
 922:	5a 95       	dec	r21
 924:	a9 f7       	brne	.-22     	; 0x910 <__udivmodhi4_loop>
 926:	80 95       	com	r24
 928:	90 95       	com	r25
 92a:	bc 01       	movw	r22, r24
 92c:	cd 01       	movw	r24, r26
 92e:	08 95       	ret

00000930 <__divmodhi4>:
 930:	97 fb       	bst	r25, 7
 932:	07 2e       	mov	r0, r23
 934:	16 f4       	brtc	.+4      	; 0x93a <__divmodhi4+0xa>
 936:	00 94       	com	r0
 938:	07 d0       	rcall	.+14     	; 0x948 <__divmodhi4_neg1>
 93a:	77 fd       	sbrc	r23, 7
 93c:	09 d0       	rcall	.+18     	; 0x950 <__divmodhi4_neg2>
 93e:	0e 94 84 04 	call	0x908	; 0x908 <__udivmodhi4>
 942:	07 fc       	sbrc	r0, 7
 944:	05 d0       	rcall	.+10     	; 0x950 <__divmodhi4_neg2>
 946:	3e f4       	brtc	.+14     	; 0x956 <__divmodhi4_exit>

00000948 <__divmodhi4_neg1>:
 948:	90 95       	com	r25
 94a:	81 95       	neg	r24
 94c:	9f 4f       	sbci	r25, 0xFF	; 255
 94e:	08 95       	ret

00000950 <__divmodhi4_neg2>:
 950:	70 95       	com	r23
 952:	61 95       	neg	r22
 954:	7f 4f       	sbci	r23, 0xFF	; 255

00000956 <__divmodhi4_exit>:
 956:	08 95       	ret

00000958 <_exit>:
 958:	f8 94       	cli

0000095a <__stop_program>:
 95a:	ff cf       	rjmp	.-2      	; 0x95a <__stop_program>
